:020000040800F2
:100000006808002001010008F31200088F120008A0
:10001000F112000875010008351800080000000002
:10002000000000000000000000000000891500082A
:100030007701000800000000151300088B15000868
:100040001B0100081B0100081B010008A91400087F
:100050001B0100081B0100081B0100081B01000810
:100060001B0100081B0100081B0100081B01000800
:100070001B0100081B0100081B0100081B010008F0
:100080001B0100081B0100081B0100081B010008E0
:100090001B0100081B0100081B0100081B010008D0
:1000A0001B0100081B0100081B0100081B010008C0
:1000B0001B0100081B0100081B0100081B010008B0
:1000C0001B0100081B0100081B0100081B010008A0
:1000D0001B0100081B0100081B0100081B01000890
:1000E0001B010008591300081B010008DFF80CD0A1
:1000F00000F02EF800480047D51B000868080020D3
:100100000648804706480047FEE7FEE7FEE7FEE7B1
:10011000FEE7FEE7FEE7FEE7FEE7FEE7191600084A
:10012000ED00000830B50B460146002020220124D6
:1001300009E021FA02F59D4205D303FA02F5491BB5
:1001400004FA02F52844151EA2F10102F1DC30BDCB
:10015000064C074D06E0E06840F0010394E8070014
:1001600098471034AC42F6D3FFF7C4FFD41C000804
:10017000F41C0008FEE7704770B5044600F0ECF888
:100180000546601C02D004480078044400F0E4F8FE
:10019000401BA042FAD370BD000000202DE9F84FAB
:1001A000DFF890A100220AF1040B144601274FF05A
:1001B0000F090BF1040E00BF0B6807FA04F52B4082
:1001C000AB4274D1DFF870C14E68A6EB0C086645EF
:1001D0002BD00DDC032E34D005DC36B3012E19D024
:1001E000022E2FD11BE0112E16D0122E2AD119E08B
:1001F000B8F5881F19D006DCB8F5803F15D0B8F5E2
:10020000801F1FD111E0B8F5001F0ED0B8F5041FF4
:1002100018D10AE0CA6815E0CA68121D12E0CA685F
:1002200008320FE0CA680C320CE08A682AB1012A51
:100230004FF0080203D0456104E0042202E00561AA
:1002400000E00022FF2B01D8064601E000F1040681
:100250004FEA840501D9A5F12005D6F800C009FAB6
:1002600005F82CEA080C02FA05F54CEA050CC6F86C
:1002700000C04D68ED0057D5304DAE6946F001061F
:10028000AE61AD6924F0030605F0010500952C4D23
:1002900006EB050CDCF80850A6074FEA167809FAB9
:1002A00008F6B543274EB04202D1002610E03BE0ED
:1002B000254EB04201D101260AE0244EB04201D1C0
:1002C000022605E0224EB04201D1032600E00426BA
:1002D00006FA08F62E43CCF808604D68DAF800609C
:1002E000ED03554601D51E4300E09E432E604D6848
:1002F000DBF80060AD035D4601D51E4300E09E4380
:100300002E604D68DEF80060ED02754601D51E4393
:1003100000E09E432E604D68AD020E4D2E6801D563
:100320001E4300E09E432E60641C102CFFF444AF7B
:10033000BDE8F88F000401400000111000100240D9
:100340000000014000080140000C01400010014085
:10035000001401400C04014001488068704700000F
:1003600000000020024881680278114481607047D3
:1003700000000020074810B5016841F0100101603D
:10038000032000F09DF8002000F006F800F024F8AB
:10039000002010BD0020024070B50D4D04464FF402
:1003A0007A712878B1FBF0F00A490968B1FBF0F0E6
:1003B00000F09AFE48B9102C07D200222146501EA8
:1003C00000F05EF800206C6070BD012070BD000080
:1003D000000000200C000020214808B5816941F090
:1003E00001018161816901F001010091C16941F060
:1003F0008051C161C06900F080500090032000F07E
:100400005FF8002211466FF00B0000F039F800226F
:1004100011466FF00A0000F033F8002211466FF029
:10042000090000F02DF800221146501F00F028F8B6
:1004300000221146101F00F023F800221146901EE2
:1004400000F01EF800221146501E00F019F8054871
:10045000416821F0E06141F00071416008BD000099
:10046000001002400000014000F01F0201219140F5
:100470004009800000F1E020C0F800117047000042
:10048000F0B40E4B1B680C46C3F30223C3F10705FF
:10049000042D00D90425191D072901D2002300E0ED
:1004A000DB1E012606FA05F1491E214099409E40B7
:1004B000761E16403143F0BC00F01CBF0CED00E08E
:1004C000064900F0070208684FF6FF03184040EAAB
:1004D0000220034A10430860704700000CED00E062
:1004E0000000FA05014901200862704700000E4231
:1004F00010B529A401461DCC86B08DE81D002AA0A8
:100500002A4C006804900020012923D002293AD007
:1005100010291DD161682268D20119D5C1F3834227
:10052000C9031DF8020009D5616804AAC1F340415E
:10053000515C1F4AB2FBF1F1484301E01D494843B9
:100540006168490204D440005FF00301B0FBF1F0A0
:1005500006B010BD226AC2F30121012903D192071E
:1005600001D5C803F4E7022905D1626A920702D5D2
:1005700049F64040ECE70329EAD121688903E7D531
:100580004FF22440E4E700F04DF96168C1F3813196
:10059000491C4900DAE700000203040506070809C0
:1005A0000A0B0C0D0E0F101001020000001002408B
:1005B00000127A0000093D002DE9F8430546007855
:1005C000354CC00754D0E0690026C00008D4E0696B
:1005D00040F08050E061E069012600F0805000901A
:1005E0002E480168C90512D40168804641F4807123
:1005F0000160FFF7B1FE074605E000BFFFF7ACFE64
:10060000C01B642823D8D8F80000C005F6D5206A9E
:1006100010F4407021D0A98801F4407181421CD0AF
:10062000206A1F49012220F440700A6000220A60FB
:100630002062C00711D0FFF78FFE074641F28838CD
:1006400008E000BFFFF788FEC11B414502D9032027
:10065000BDE8F883206A8007F4D5206A696820F431
:100660004070084320621EB1E06920F08050E061D4
:100670002878800705D56068A96820F440400843C1
:1006800060602878C00605D56068E96820F48000BD
:10069000084360600020DBE700100240007000406B
:1006A000400442422DE9F047DFF83C8105460E4602
:1006B000D8F8000000F00700B0420CD2D8F80010C3
:1006C00021F007013143C8F80010D8F8000000F00D
:1006D0000700B04263D12878444C800705D5606894
:1006E000A96820F0F000084360602878C00745D072
:1006F0006868012816D02168022816D089070029C9
:100700004DDA616821F0030101436160FFF724FEC7
:100710006968074641F2883001290FD002298146D5
:1007200019D027E021688903E9E78901E7E700BFDD
:10073000FFF712FEC11B494501D918E081466068E8
:10074000C0F381000128F3D118E000BFFFF704FED9
:10075000C11B49450BD86068C0F381000228F5D160
:100760000CE000BFFFF7F8FDC11B494502D903208B
:10077000BDE8F087606810F00C0FF3D1D8F80010D6
:10078000404601F00701B1420BD9016821F0070191
:1007900031430160006800F00700B04201D0012041
:1007A000E6E72878400705D56068E96820F4E0604E
:1007B000084360602878000706D56068296920F43E
:1007C000605040EAC100606000F03CF86168084A8F
:1007D000C1F30311515CC840064908600020FFF7CF
:1007E000DBFD0020C4E700000020024000100240B2
:1007F000BC1C00080C000020014800687047000085
:100800000C0000200448054900684968044AC1F307
:100810000221515CC84070470C00002000100240CB
:10082000CC1C00080448054900684968044AC1F323
:10083000C221515CC84070470C00002000100240EB
:10084000CC1C000812A185B00FC98DE80F0014A0C0
:10085000144A006804905168134801F00C03042BFB
:1008600010D0082B0ED1C1F38343C9031DF8030038
:100870000AD5516804AAC1F34041515C0A4A504369
:10088000B0FBF1F005B0704708494843FAE70000B3
:1008900002030405060708090A0B0C0D0E0F1010C1
:1008A000010200000010024000127A0000093D0021
:1008B0002DE9F84F04460078B94DC00748D0686864
:1008C000C0F38100012807D06868C0F381000228C6
:1008D00009D16868C00306D52868800338D56068E8
:1008E00000286FD034E06068B0F5803F0BD010B1C5
:1008F000B0F5A02F11D0286820F480302860286837
:1009000020F4802002E0286840F48030286060688D
:1009100088B1FFF721FD064609E0286840F48020F1
:100920002860F0E7FFF718FD801B642875D8286859
:100930008003F7D50CE0FFF70FFD064605E000BF8A
:10094000FFF70AFD801B6428F0D828688003F7D4DD
:100950002078944E80074FF001094FF000083BD5F6
:10096000686810F00C0F07D06868C0F38100022897
:1009700009D16868C00306D42868800714D52069A7
:1009800001281FD110E02069B0B1C6F80090FFF730
:10099000E3FC074605E000BFFFF7DEFCC01B0228B2
:1009A000C4D828688007F7D52868616920F0F80066
:1009B00040EAC10028600FE0C6F80080FFF7CCFCD9
:1009C000074606E0E9E000BFFFF7C6FCC01B0228AF
:1009D00023D828688007F7D4207800072CD57248E0
:1009E000A169D9B1C0F80090FFF7B6FC074604E052
:1009F000FFF7B2FCC01B02280FD8686A8007F7D542
:100A00006A484FF4FA510068B0FBF1F0009000BF63
:100A10000098411E0091FAD20EE080E0C0F80080FC
:100A2000FFF79AFC074604E0FFF796FCC01B02287C
:100A300075D8686A8007F7D42078400760D5E869E0
:100A40000027C00008D4E86940F08050E861E869F8
:100A5000012700F08050009055480168C90513D463
:100A60000168834641F480710160FFF775FC82469E
:100A700006E000BFFFF770FCA0EB0A0064284ED828
:100A8000DBF80000C005F5D5E06801280AD008B100
:100A9000052813D0286A20F001002862286A20F077
:100AA000040002E0286A40F001002862E06841F298
:100AB000883B98B1FFF750FC82460BE0286A40F073
:100AC00004002862EEE700BFFFF746FCA0EB0A0136
:100AD00059455AD8286A8007F6D50CE0FFF73CFC48
:100AE000824605E0FFF738FCA0EB0A0159454CD8D7
:100AF000286A8007F6D41FB1E86920F08050E861C9
:100B0000E06988B36968C1F38101022945D00228F0
:100B1000C6F8608004D0FFF71FFC044638E034E0DC
:100B2000FFF71AFC074604E0FFF716FCC01B02287B
:100B30002BD828688001F7D4206AB0F5803F05D112
:100B40006868A16820F4003008436860D4E90801AF
:100B50000843696821F4741108436860C6F860901E
:100B6000FFF7FAFB044606E015E000BFFFF7F4FBD1
:100B7000001B022809D828688001F7D50BE000BFC8
:100B8000FFF7EAFB001B022802D90320BDE8F88F1B
:100B900028688001F4D40020F8E70120F6E700007F
:100BA0000010024000004242800442420C0000203B
:100BB0000070004001A000F03FBE000052544320EE
:100BC00043616C6C6261636B2121210D0A0000009E
:100BD000704710B5044600680168C90716D041681F
:100BE000C90713D040684007204607D5FFF7F0FF3C
:100BF00021686FF004004860042002E0FFF7DAFF8C
:100C00000120607421686FF00100486010BD000091
:100C100010B500F081FBBDE8104001A000F00CBE53
:100C200052544320416C61726D2043616C6C62616F
:100C3000636B2121210D0A0010B50446006801688C
:100C4000890709D54068800706D52046FFF7E0FFF1
:100C500021686FF00200486003494FF400300860DB
:100C60000120607410BD0000140401402DE9F0471C
:100C700091460C465FEA00084AD084B3D8F80000D9
:100C80004068400744D4404600F01BFC4FF46162CA
:100C90000546B0FBF2F1B0FBF2F302FB13503C232C
:100CA000B0FBF3F0B5FBF2F6607002FB1650B0FB40
:100CB000F3F203FB1200A070182931D31820B1FB06
:100CC000F0F7B1FBF0F200FB12102070404600F08C
:100CD000F1FB411C04D0A84202D9461B02E017E0F8
:100CE0004FF0FF36A7EB071000EB4000C0EB001001
:100CF00005EBC0152946404600F032FC40B9701C97
:100D000001D0711900E03146404600F015FC10B1E9
:100D10000120BDE8F0873946404600F037FB00E08F
:100D20002170B9F1000F0BD0207800F024FB207067
:100D3000607800F020FB6070A07800F01CFBA070D1
:100D40000020E6E770B5040003D0607C002610B1F7
:100D500005E0012070BD2674204600F043F8022013
:100D60006074204600F096F9042578BB204600F018
:100D700064FB58BB2068416821F007014160A0680E
:100D800020B11748016821F0010101601448001FDB
:100D90000168A26821F46071114301606068411C20
:100DA00004D10120FFF7A4FB80B1401E21688A68AE
:100DB00022F00F0242EA10428A602168CA6860F39A
:100DC0000F02CA60204600F053FB08B16574C0E70B
:100DD000E67301206073A0736074002070BD000092
:100DE000306C004008B50068114988421FD1FFF7F8
:100DF00079FB1048C16941F00061C161C0690E49C9
:100E000000F0006000900120086000220221032011
:100E1000FFF736FB0320FFF727FB002202212920E2
:100E2000FFF72EFBBDE808402920FFF71DBB08BDDA
:100E300000280040001002403C0442422DE9F843E3
:100E40004FF0000617460D46040000960FD075B10E
:100E5000207C01280ED04FF0010984F81090022068
:100E60006074002269462046FFF700FF20B1012090
:100E7000BDE8F8830220FBE79DF800004FF46161B4
:100E800048439DF80110C1EB011100EB81009DF872
:100E9000021000EB01082878E7B100F063FA4FF484
:100EA000616100FB01F7687800F05CFAC0EB0010AC
:100EB00007EB8007A87800F055FA3918414501D2B0
:100EC00016480144204600F037FB70B104206074DE
:100ED0002674CCE74FF4616148436978C1EB011196
:100EE00000EB8100A9780144E8E721686FF0020077
:100EF00048602068016841F002010160084801680B
:100F000041F40031016006480830016841F40031C5
:100F1000016084F8119026740020A9E78051010037
:100F2000000401402DE9F0410D4604003BD0C5B35B
:100F3000207C01283AD04FF0010884F8108002206C
:100F40006074E87872B300F00DFAE073687800F02E
:100F500009FA6073A87800F005FAA073C2B2617B49
:100F6000E07B00F0BEFA20732870204600F0A9FA5A
:100F70004FF46161B0FBF1F1002518292DD9182239
:100F8000B1FBF2F1A1EB011101EB4101C1EB011148
:100F900000EBC1163146204600F0E2FA0427C8B93A
:100FA0000BE000E004E00120BDE8F0810220FBE757
:100FB000E07368786073A878CFE7204600F07AFA8B
:100FC000411C0AD0B04208D206490144204600F034
:100FD000B3FA10B167742574E5E784F811802574BD
:100FE0000020E1E7805101002DE9F0410D460400A9
:100FF00024D01DB3207C012823D04FF0010884F8B1
:101000001080022060742878EAB100F0ABF94FF448
:10101000616100FB01F6687800F0A4F9C0EB0010F4
:1010200006EB8006A87800F09DF935182946204681
:1010300000F096FA0026042710BB0FE00120BDE85F
:10104000F0810220FBE74FF4616148436978C1EB0E
:10105000011100EB8100A9784518E7E72068416895
:1010600021F005014160204600F024FA411C0AD01D
:10107000A84208D206490144204600F05DFA10B1AA
:1010800067742674DAE784F8118026740020D6E7A6
:101090008051010070B504000AD02068416821F039
:1010A00008014160FFF758F905464FF47A7608E0E9
:1010B000012070BDFFF750F9401BB04201D9032059
:1010C00070BD206840680007F4D5002070BD4FF067
:1010D000E0210428086903D020F00400086170476B
:1010E00040F00400FAE7704710B5401EB0F1807F71
:1010F00001D3012010BD4FF0E02460610F21601783
:1011000000F0F8F80020A06107202061002010BD49
:1011100010B5FFF7E8FF10BD70B5040004D094F8D7
:101120003900002510B106E0012070BD84F8385068
:10113000204600F023F8242084F839002068C16894
:1011400021F40051C160204600F08AFA206801694C
:1011500021F4904101612068416921F02A01416137
:101160002068C16841F40051C160E563202084F823
:10117000390084F83A00002070BD000010B5006806
:10118000114986B088421CD11048C16941F4003130
:10119000C161C0690E4C00F400300490042000903E
:1011A000022001900320039069462046FEF7F6FFD7
:1011B00000210820CDE90001029169462046FEF792
:1011C000EDFF06B010BD00000044004000100240DA
:1011D000000801402DE9F843044690F839001F4605
:1011E00016460D46202850D1A5B19EB194F838007E
:1011F00001284AD0012084F838004FF00008C4F8D4
:101200003C80212084F83900FFF7A6F8A6848146A7
:10121000E68426E00120BDE8F883E08C401EE084EF
:10122000A0684B46B0F5805F4FF000024FF08001A0
:101230002046009703D000F0CBFAE8B90DE000F0AB
:10124000C7FAC8B928882168C0F308004860206937
:1012500008B16D1C05E0AD1C03E0216815F8010B19
:101260004860E08C0028D8D14B460022402120461F
:10127000009700F0ADFA08B10320CCE7202084F8F5
:10128000390084F838800020C5E70220C3E7FEE774
:101290001CB516481449002401604FF0FF31C0E925
:1012A0000114FFF74FFD00B1FEE78DF804408DF803
:1012B00005408DF80640012201A90C48FFF794FE75
:1012C00000B1FEE701208DF800008DF801008DF8D7
:1012D000020002468DF8034069460448FFF722FEEB
:1012E000002800D0FEE71CBD0028004014000020AC
:1012F000FEE770470907090E002806DA00F00F0024
:1013000000F1E02080F8141D704700F1E02080F823
:1013100000147047704700000EB5012269460D4861
:10132000FFF7A4FC002002909DF800008DF8040057
:101330009DF801008DF805009DF802000122401C77
:101340008DF8060001A90348FFF778FD002800D0BA
:10135000FEE70EBD140000200148FFF76DBC000041
:1013600014000020010901EB810100F00F0000EBE7
:101370004100C0B27047002102E00A38C0B2491CE7
:101380000A28FAD2090740EA116070472DE9F041B6
:1013900004460025C07B627BA37B42E0012A16D075
:1013A000032A14D0052A12D0072A10D0082A0ED0FA
:1013B0000A2A0CD00C2A0AD0042A10D0062A0ED0F1
:1013C000092A0CD00B2A0AD0022A0DD028E01F2BA4
:1013D0000CD30C2A05D101221346401C20E01E2B01
:1013E00004D30123521C1BE01C2B02D203F1010386
:1013F00016E011D183B29E0710D16426B3FBF6F735
:1014000006FB173636B94FF4C876B3FBF6F706FB82
:1014100017331BB91D2303E01D2B01D10322012328
:101420006D1C8D42BAD3D1B2E0736173DAB2A2738C
:1014300000F057F82073BDE8F08170B50446FEF760
:101440008BFF05464FF47A7606E0FEF785FF401BDA
:10145000B04201D9032070BD206840688006F4D5F1
:101460002068416841F010014160002070BD00001B
:1014700070B504460068416821F010014160FEF734
:101480006BFF05464FF47A7607E000BFFEF764FF76
:10149000401BB04201D9032070BD2068406880061F
:1014A000F4D5002070BD00000148FFF792BB00009A
:1014B000140000200168086A496A89B241EA0040C4
:1014C0007047006881698AB2C1698BB2816989B24B
:1014D0008A4203D0C06961F31F40704743EA02406B
:1014E0007047F0B56424C1EBC1030927A5000726A6
:1014F00003EB01130329B3FBF7F100F5FA60114484
:1015000001440AD2401EB0FBF4F201EB9001B0FBA3
:10151000F5F0891A0844001D08E0B0FBF4F201EB75
:101520009001B0FBF5F0891A0844801CB0FBF6F17D
:1015300006FB1100C0B2F0BD70B50D460646002492
:10154000FFF77BFF48B93168280C08623168A8B200
:1015500048623046FFF78CFF00B10124204670BD81
:1015600070B50D4606460024FFF767FF48B931689D
:10157000280C88613168A8B2C8613046FFF778FF4F
:1015800000B10124204670BD704710B5FEF7EAFE99
:10159000BDE81040FFF7BCBD70B594B00124052034
:1015A00000250090CDE902544FF4803001900226CE
:1015B0000494CDE907604FF4E01009906846FFF706
:1015C00077F900B1FEE70F20CDE90A064FF48060FD
:1015D000CDE90C5002210AA80E95FFF763F800B17F
:1015E000FEE74FF48070CDE90F400FA8FEF7E4FF4F
:1015F00000B1FEE7FFF700F94FF47A71B0FBF1F0AC
:10160000FFF772FD0420FFF762FD00221146501E15
:10161000FEF736FF14B070BD0D48016841F00101BE
:10162000016041680B4A1140416001680A4A11405B
:101630000160016821F480210160416821F4FE010C
:1016400041604FF41F0181600449C0030860704786
:10165000001002400000FFF8FFFFF6FE08ED00E07A
:101660002DE9F041044600680169E26821F4405127
:10167000114301612169A068084361690843216839
:10168000CA6841F20C639A430243CA602068416908
:10169000A26921F44071114341614C4920686425DD
:1016A000322688423CD1FFF7BDF800EBC00101EBC8
:1016B000001061688900B0FBF1F7FFF7B3F800EBA9
:1016C000C00101EB00106168B0468900B0FBF1F089
:1016D000B0FBF5F06FF01801484307EB800106EB13
:1016E0000110B0FBF5F000F0F006FFF79BF800EBFF
:1016F000C00101EB001061688900B0FBF1F0B0FBA4
:10170000F5F006EB0016FFF78DF800EBC00101EBDA
:10171000001061688900B0FBF1F7FFF783F83BE048
:10172000FFF770F800EBC00101EB00106168890061
:10173000B0FBF1F7FFF766F800EBC00101EB00101A
:101740006168B0468900B0FBF1F0B0FBF5F06FF0D6
:101750001801484307EB800106EB0110B0FBF5F0E0
:1017600000F0F006FFF74EF800EBC00101EB0010AF
:1017700061688900B0FBF1F0B0FBF5F006EB0016F4
:10178000FFF740F800EBC00101EB00106168890031
:10179000B0FBF1F7FFF736F800EBC00101EB0010EA
:1017A00061688900B0FBF1F0B0FBF5F06FF0180153
:1017B000484307EB800108EB0110B0FBF5F021680E
:1017C00000F00F0030448860BDE8F081003801402F
:1017D0002DE9F041984617460E460446069D1DE049
:1017E000681C1BD02DB1FEF7B7FDA0EB0800A84286
:1017F00014D92068C16821F4D071C16020684169A2
:1018000021F001014161202084F8390084F83A0078
:10181000002084F838000320BDE8F08120680068CB
:1018200036EA000004D00020B842D9D00020F3E707
:101830000120F9E7FEE700000FB4054B10B503A93E
:10184000044A029800F018F810BC5DF814FB000080
:10185000BD1B00081000002002E008C8121F08C1CC
:10186000002AFAD170477047002001E001C1121F21
:10187000002AFBD1704700002DE9FF4F8BB088464E
:101880000546002606E025280BD0DDE90D1290471D
:101890006D1C761C28780028F5D10FB03046BDE8C5
:1018A000F08F0024A146A2460122AE4900E0044385
:1018B00015F8013F203B02FA03F00842F7D12878DF
:1018C0002A2810D06FF02F022878A0F130010929C2
:1018D00015D809EB890102EB410144F0020400EB49
:1018E00001096D1CF0E758F8041B5FEA010903D5F4
:1018F00044F40054C9F1000944F002046D1C287836
:101900002E2817D115F8010F44F004042A280ED010
:101910006FF02F022878A0F1300109290AD80AEBCC
:101920008A0102EB410100EB010A6D1CF2E758F855
:1019300004AB6D1C28786C280FD006DC4C2817D01F
:1019400068280DD06A2814D104E0742810D07A28B1
:101950000FD10DE044F400140AE044F4801401E0D7
:1019600044F440146978814202D104F580146D1C5E
:101970006D1C2878692865D006DC00288DD0632886
:1019800027D0642806D15DE06E2808D073282AD0BD
:10199000752877D0DDE90D129047761CE0E0C4F39E
:1019A0000250022809D003280DD0D8F800100428CE
:1019B0000DD00E6008F10408D2E0D8F80010F2173C
:1019C000C1E90062F6E7D8F800100E80F2E70E7069
:1019D000F0E718F8041B8DF8001000208DF80100C6
:1019E000EB46012003E058F804BB4FF0FF306107DD
:1019F0004FF0000701D40AE07F1C57450DDA8742FB
:101A0000FADB1BF807100029F6D106E07F1C87429D
:101A1000FCDB1BF807100029F8D1DDE90D23A9EB49
:101A200007008146214600F0B1F83044C61904E0B1
:101A3000DDE90D121BF8010B90477F1EF8D22146FD
:101A4000484688E058F8040BC4F302514FF00A0BE3
:101A5000032900D100B2042900D140B2002802DAE3
:101A600040422D2102E0210505D52B218DF82410BF
:101A7000012104E006E0E10710D02021F6E708AFDD
:101A8000089113E058F8040BC4F302514FF00A0B0D
:101A9000032900D180B2042900D1C0B20021EEE7B1
:101AA0005946FEF73FFB303107F8011D0028F7D1FA
:101AB000ADEB070000F1200B600702D524F4803461
:101AC00001E04FF0010ADA4502DDAAEB0B0000E06D
:101AD0000020824600EB0B0108980144A9EB0100AD
:101AE0000A90E00306D4DDE90D2321460A9800F0B0
:101AF0004DF806444FF0000908E009A911F8090063
:101B0000DDE90D12904709F10109761C0899894514
:101B1000F3DBE0030CD5DDE90D2321460A9800F044
:101B200035F8064404E0DDE90D1230209047761CBC
:101B3000BAF10001AAF1010AF5DC05E0DDE90D12B8
:101B400017F8010B9047761CBBF10001ABF1010BBC
:101B5000F4DC0A982146DDE90D2300F005F806447F
:101B60006D1C97E6092801002DE9F0410446002587
:101B70001E461746880404D405E039462020B047A5
:101B80006D1C641EF9D52846BDE8F0812DE9F041B1
:101B9000044600251E469046C80301D5302700E0C4
:101BA0002027880404D505E041463846B0476D1C1F
:101BB000641EF9D52846BDE8F081000013B5012365
:101BC0001A4669460248FFF705FB00981CBD000055
:101BD000280000201CB5FEF7CDFBFFF7DDFC2748F1
:101BE000816941F010018161816901F01001019169
:101BF000816941F020018161816901F02001019139
:101C0000816941F004018161816901F00401019160
:101C1000816941F008018161806900F0080001904C
:101C2000FFF736FB174816490C2201604FF4E131EB
:101C3000416000218160C160C0E904128161C1611D
:101C4000FFF76AFA00B1FEE70FA0FFF7F5FDFFF717
:101C500063FB4FF4FA740B48002269461438FFF70F
:101C600005F89DF802309DF801209DF800100BA0AA
:101C7000FFF7E2FD2046FEF77FFAECE70010024096
:101C80000044004028000020554152543220546541
:101C900073747E2121210D0A0000000063757220FB
:101CA00054696D6520697320253032643A253032DD
:101CB000643A253032640D0A000000000000000084
:101CC00000000000010203040607080900000000EC
:101CD00001020304F41C00080000002014000000AE
:101CE00058180008081D00081400002054080000BF
:101CF000681800080100000010000000000000004B
:081D000000A24A0400000000EB
:04000005080000ED02
:00000001FF
